:020000040000FA
:100000000CD0EED0FFFFFFFFFFD082BEF4D0040083
:1000100082AEFED71200FFFFFFD0A66AA968AA68C9
:10002000A680A84A05D0A84CEBD0066E310ECD6E46
:10003000949C900EAB6E260EAC6EAB98030ED56EF4
:10004000D76AD66AD8D8D58ED6D8D59ED6CF03F063
:10005000D7320332D8A0030603C0AFFFAB88AE503F
:10006000AE50B6D80F0AE9E100EE08F0006A016A66
:10007000AFD80F0AF6E00450040A0AE00450050A5B
:1000800001E1A6D804500026EE6E014ED6D7F0D777
:100090000052D3E1CD900A50F66EA96E0B50F76E68
:1000A000AA6E0CC0F8FF00EE0DF00950016ED8B436
:1000B000FF0008500808C1E3FA6AFB6A0844F92601
:1000C00008D01ED025D034D03ED048D019D052D040
:1000D000FF00EE50AF02F446F446FC0EF416F34671
:1000E000F346030EF314F424A86E040EA66E78D81B
:1000F000A6B2FED70C0E0A6E000E0B6E040E45D093
:100100000900F5CFEEFF012EFBD70950050F3DD0BA
:10011000F80EF616080EEECFF5FF0D00E82EFBD711
:100120000A00840EA66E5CD80900012EF1D72CD0EF
:10013000940EA66E55D8400EF626E86AF722F822ED
:10014000012EF6D721D0A66AA680A8CFEEFFA94A35
:10015000AA2A012EF8D70950050F17D0EECFA8FF15
:10016000040EA66E3DD8A6B2FED7A94AAA2A012E31
:10017000F5D70AD0C40EA66EEECFF5FF0C0030D82E
:100180000900012EF7D700D0010E016E0F0E1BD80B
:100190001AD8006A00EE08F0EE50002608D8012EAA
:1001A000FBD7006C005003D8040E0DD846D7056E5F
:1001B0000F0A06E00550040A03E00550050A02E1B3
:1001C000050E01D8055004009EA8FED7AD6E1200A2
:1001D0000400ABB2FF009EAAFED7AE50046E120020
:1001E0000400550EA76EAA0EA76EA682000012008C
:1001F000FFFFFFFFFFFF9EA008D79E90062E05D7AA
:0602000036EF06F01200CB
:06020800B5EF02F0120048
:06021800B7EF02F0120036
:02022A000000D2
:04022C000F9E08D049
:100230000F9E07AE05D0066C071EE86A07220F8ED8
:1002400007C001F006C000F0136A126A8E0E026E3B
:10025000036A4BEF02F00F6A87EC02F09FEC02F0AA
:100260000FB62FEF02F00FA205D00FB82FEF02F05C
:1002700036EF02F00FAA05D00FB02FEF02F036EFE5
:1002800002F00FB002D00FA802D042EF02F0036AD2
:100290000D500824026EE86A03227E0E025EE86AB0
:1002A000035A126A136A006A016A0C500702F4CFFB
:1002B00001F0F3CF00F00B500702F3501326F45077
:1002C0000022000E01220C500602F3501326F450B7
:1002D0000022000E01220A500702F3501226F450A9
:1002E0001322000E002201220B500602F3501226A8
:1002F000F4501322000E002201220C500502F3508C
:100300001226F4501322000E002201220A50060287
:10031000F4501226000E1322002201220B50050277
:10032000F4501226000E1322002201224BEF02F09D
:100330000D7E0F6A87EC02F09FEC02F00FB62FEFF4
:1003400002F00FA20AD00FAA03D00FBE2FEF02F0C7
:100350000FA43BEF02F038EF02F00FAA05D00FAC6C
:100360003BEF02F038EF02F00FA00AD00FA808D040
:100370000FBE04D00FA402D044EF02F048EF02F009
:10038000126A036A0D50085C116E10E305C013F089
:1003900006C000F007C001F008C010F00AC005F068
:1003A0000BC006F00CC007F00F3A09D00AC013F0DA
:1003B0000BC000F00CC001F00DC010F0116C0F9ECE
:1003C0000FBC0F8E10C002F00FB077EF02F01A0EC4
:1003D000116077EF02F0026A086A0FA408D0056C7A
:1003E000061E071E081EE86A0622072208220FAC16
:1003F00008D0136C001E011E021EE86A00220122B2
:100400000222046A115207E008340732063205322C
:100410000432112EF9D7055013260650002207503A
:1004200001220850022204C012F00F9E02AE0BD02F
:10043000126C131E001E011E021EE86A1322002207
:10044000012202220F8E02A006D0D8800132003293
:1004500013321232102A10C002F04BEF02F07F0E5E
:10046000086EFF0E076E066E056E12007F0E0FBE41
:10047000FF0E086E02D07F0E086E800E076E066AB1
:10048000056AF3D70FAE04D0800E086E076AF7D75F
:10049000086A076AF4D70150001013101210F8E030
:1004A00003BEF0D701BE0CD002500310EBE0D89091
:1004B00012361336003601360206D8A00306F2D7EC
:1004C0000350D4E10228D2E012AE11D07F0E1214F4
:1004D00002E113A00CD0132AE86A0022012207E3EC
:1004E000D880013200321332022A0228BFE00250C3
:1004F000C9E013C005F000C006F00134076E0230F9
:10050000086E0732089E0FBE088E35EF02F00736E0
:10051000083602E30F840F7E06E10F80086A076A3F
:10052000066A056A1200082803E0D8800732120024
:10053000D890073202E10F8212000F8612000C36AB
:100540000D3602E30F8C0F7E06E10F880D6A0C6AF0
:100550000B6A0A6A12000D2803E0D8800C321200E0
:0A056000D8900C32EAE10F8A120075
:06056A003BD91100D8CFBF
:10057000E4FFE0CFE4FFE46E34D9E550E5CFE0FFDF
:10058000E5CFD8FF100020D9080EE12634D8DF6A65
:10059000DE52070EDD6E440EE66E480EE66EE66A2B
:1005A00018D9010EDB50E66EDF50E66E29D8E55211
:1005B000E552020EF3CFDBFF030EF4CFDBFF020E9A
:1005C000DBCFE6FF030EDBCFE6FFABD8E552E5520B
:1005D000040E04C0DBFF050E05C0DBFF060E06C0DF
:1005E000DBFF070E07C0DBFFA00EE66E860EE66E91
:1005F000010EE66ED5D70F0EC16E94889486120058
:10060000E3D80D0EE1260C0EDB6A09EC05F00C0EAA
:10061000DB06DB50146E156AE85015105BE0CBD892
:100620000009F3E1FD0EDB50E66E10EC05F0E5523B
:100630000009EBE1C0D80009E8E1E66AD9D8030E69
:10064000E7CFDBFFE66AD4D8040EE7CFDBFF010E6D
:10065000E66ECED8020EE7CFDBFF09EC05F0FE0E0A
:10066000DB50E76E0A0EE7CFDBFFFD0EDB50E76ED7
:10067000090EE7CFDBFFFE0EDB50E76E080EE7CF7B
:10068000DBFF030EDB50E76E070EE7CFDBFF040E48
:10069000DB50E76E060EE7CFDBFF050EDB6AD950B5
:1006A000050FE66E000EDA20E66E01EC04F0E5526E
:1006B000E552E76E0B0EE7CFDBFFDB50146E156AD9
:1006C000020EDB50166E176AE85014189EE11750A0
:1006D00015189BE1030EDB50DF6E040EDB50E76E56
:1006E000010EE7CFDBFFDECF14F0DDCF15F014C035
:1006F000F3FF15C0F4FF0D0EE15C02E2E16AE55282
:10070000E16E7BD082969496E80EE66E1C0EE66E45
:10071000E66A5FD89486120057D84DD809EC05F0E8
:100720006CD052D8040EE126FD0EDBCF06F0FE0E93
:10073000DBCF07F016EC01F005C018F006C019F089
:1007400007C01AF008C01BF00A0E0A6ED70E0B6E17
:10075000A30E0C6E3C0E0D6E2BEC01F005C014F0D8
:1007600006C015F007C016F008C017F0330E0A6E69
:10077000930E0B6E880E0C6E430E0D6E98EC01F00E
:1007800005C0DEFF06C0DEFF07C0DEFF08C0DDFFDC
:10079000DD52DD52DECF04F0DECF05F0DECF06F015
:1007A000DDCF07F0DD52DD52040EE15C02E2E16ACA
:1007B000E552E16E22D001EC05F0FE0EDB50E66E54
:1007C00010EC05F0E5521200D9CFE6FFE1CFD9FFDA
:1007D0001200E66A11EC06F0E552E552E552E552E8
:1007E0001200DACFE4FFE652E552E5CFDAFF12005D
:1007F0007FEC05F0E552E76E1200E552E7CFD9FF36
:020800001200E4
:0E080200D9CFE6FFE1CFD9FF0B0EE1262F0E76
:10081000F36E060EF3CFDBFF050EDB6A040EDB6A18
:10082000030EDB6A020EDB6ADE52010EDD6E070E7E
:10083000DF6E2F0EF36E060EF3CFDBFF070EDB6AC3
:10084000050EF36E080EF3CFDBFF090EDB6A800E98
:100850001A6E1B6A090EDB50E8501AC018F01BC054
:1008600019F005E0D89019321832E804FBE1ADD850
:10087000EF501814176AE85017100BE1080EDB5000
:100880001D6E1E6A1E3404E21D500008000E1E5428
:1008900002E3000E01D0010E156AE850151014E0B5
:1008A000060EDB06090EA2D8D890155004E6070EF6
:1008B000145C000E155803E2090EDB2AC8D7090E96
:1008C000DB6A080EDB06C3D7060E90D8080E145E4E
:1008D000000E155A070E14C0DBFFDB50156AE850F6
:1008E000151048E0050EF36E080EF3CFDBFF7ED83F
:1008F000D890155004E6FF0E145C000E155837E230
:10090000080EDB501A6E1B6A1A06000E1B5AD950CD
:100910001A24E96EDA501B20EA6EEF50E850800B83
:100920000BE0080EDB501C6E1D6A1D3404E21C50E7
:100930000008000E1D5402E3000E01D0010E156ADE
:10094000E850151006E0010EF36E0A0EF3CFDBFF40
:1009500002D00A0EDB6A42D8EF9EEF460A0EDB5049
:10096000166E3CD81650EF26080EDB06C0D7070ED1
:10097000DB06B3D7080EDB6A39D8153404E214500D
:100980000508000E155409E329D8EF50146E1DD840
:100990001450EF1A080EDB2AEFD7060E27D81534AD
:1009A00004E214500808000E155401E235D722D88D
:1009B000EF50146E0B0EE15C02E2E16AE552E16E6B
:1009C0001450E552E7CFD9FF1200080EDB50E76E56
:1009D00011D8E750E926000EEA221200080EDB507B
:1009E000D924E96E000EDA20EA6E1200DB50146E94
:1009F000156A1200FD0EDBCFE9FFFE0EDBCFEAFF2A
:020A00001200E2
:0E0A02009488A2D89486B3D882969496A5EFD5
:100A100005F082969496ACD8948697D89488120064
:100A20009DD8030EE126080EDF6EDF509CD81CE037
:100A3000FE0EDB50146E156AE850800B06E0010EC6
:100A4000F36E020EF3CFDBFF02D0020EDB6ADB5047
:100A5000E66E17D8E552FE0EDBCFF3FFF39EF346AA
:100A6000F3CFDBFFDF06E1D730D8E76E010EE7CF2B
:100A7000DBFFDB50146E030EE15C02E2E16AE5523B
:100A800067D0D9CFE6FFE1CFD9FFFE0EDB50146E61
:100A9000156A1450151003E18298949801D0948837
:100AA0000000000000009486030EE66E42EC06F0A3
:100AB000E55282969496010EE66E42EC06F0E552FF
:100AC00000D0E552E7CFD9FF120048D8E65294880B
:100AD0009486030E52D88250100B01E0010E43D8C9
:100AE00003E0010EDF6E01D0DF6A82969496010E5C
:100AF00044D8DF50E552E552E7CFD9FF12002ED897
:100B0000020EE126DE52080EDD6E010EDB502BD800
:100B10000FE0DBDF000905E0DF9EDF46000EDF802F
:100B200004D0DF9EDF46000EDF90010EDB06EDD71E
:100B3000FE0EDB50E66EA5DFE552DF50146E020EAE
:100B4000E15C02E2E16AE55203D0020EBDEF05F07E
:100B5000E16E1450E552E7CFD9FF1200D9CFE6FF7E
:100B6000E1CFD9FF1200146E156AE850151012007B
:100B7000ECDF82989498A5EF05F0E66E42EC06F063
:040B8000E552120028
:0C0B84002A0EF66E020EF76E000EF86EE0
:100B900000010900F550856F0900F550866F03E1EB
:100BA000856701D03DD00900F550806F0900F550F0
:100BB000816F0900F550826F09000900F550E96E58
:100BC0000900F550EA6E090009000900F550836F2D
:100BD0000900F550846F09000900F6CF87F0F7CFC0
:100BE00088F0F8CF89F080C0F6FF81C0F7FF82C09F
:100BF000F8FF0001835302E1845307E00900F55038
:100C0000EE6E8307F8E28407F9D787C0F6FF88C045
:100C1000F7FF89C0F8FF00018507000E865BBFD78C
:020C20001200C0
:0E0C2200D9CFE6FFE1CFD9FFFB0EDBCF14F0F8
:100C3000FC0EDBCF15F0FD0EDBCF16F0FE0EDBCF8A
:100C400017F014501510161017100CE0D950FB0FA8
:100C5000E96EFF0EDA20EA6EEE06000EEE5AEE5A4C
:0C0C6000EE5AE3D7E552E7CFD9FF1200AF
:040C6C0011EE00F095
:100C700021EE00F0F86A0F9CC2EC05F0C3EC02F024
:040C8000FDD712008A
:0C0C8400FF0EE350E84E1200000000D00C
:0A0C900000D000D0E82EFAD71200C1
:020000040030CA
:01000100827C
:0100020004F9
:010003001EDE
:010005008179
:010006008178
:010008000FE8
:010009008076
:01000A000FE6
:01000B00A054
:01000C000FE4
:01000D0000F2
:0200000400F00A
:0200FE00664456
:00000001FF
