:020000040000FA
:100000000CD0EED0FFFFFFFFFFD082BEF4D0040083
:1000100082AEFED71200FFFFFFD0A66AA968AA68C9
:10002000A680A84A05D0A84CEBD0066E310ECD6E46
:10003000949C900EAB6E260EAC6EAB98030ED56EF4
:10004000D76AD66AD8D8D58ED6D8D59ED6CF03F063
:10005000D7320332D8A0030603C0AFFFAB88AE503F
:10006000AE50B6D80F0AE9E100EE08F0006A016A66
:10007000AFD80F0AF6E00450040A0AE00450050A5B
:1000800001E1A6D804500026EE6E014ED6D7F0D777
:100090000052D3E1CD900A50F66EA96E0B50F76E68
:1000A000AA6E0CC0F8FF00EE0DF00950016ED8B436
:1000B000FF0008500808C1E3FA6AFB6A0844F92601
:1000C00008D01ED025D034D03ED048D019D052D040
:1000D000FF00EE50AF02F446F446FC0EF416F34671
:1000E000F346030EF314F424A86E040EA66E78D81B
:1000F000A6B2FED70C0E0A6E000E0B6E040E45D093
:100100000900F5CFEEFF012EFBD70950050F3DD0BA
:10011000F80EF616080EEECFF5FF0D00E82EFBD711
:100120000A00840EA66E5CD80900012EF1D72CD0EF
:10013000940EA66E55D8400EF626E86AF722F822ED
:10014000012EF6D721D0A66AA680A8CFEEFFA94A35
:10015000AA2A012EF8D70950050F17D0EECFA8FF15
:10016000040EA66E3DD8A6B2FED7A94AAA2A012E31
:10017000F5D70AD0C40EA66EEECFF5FF0C0030D82E
:100180000900012EF7D700D0010E016E0F0E1BD80B
:100190001AD8006A00EE08F0EE50002608D8012EAA
:1001A000FBD7006C005003D8040E0DD846D7056E5F
:1001B0000F0A06E00550040A03E00550050A02E1B3
:1001C000050E01D8055004009EA8FED7AD6E1200A2
:1001D0000400ABB2FF009EAAFED7AE50046E120020
:1001E0000400550EA76EAA0EA76EA682000012008C
:1001F000FFFFFFFFFFFF9EA008D79E90062E05D7AA
:06020000E4EF0CF0120017
:06020800EEEF05F012000C
:06021800F7EF05F01200F3
:02022A000000D2
:04022C00D9CFE6FF41
:10023000E1CFD9FF0A0EE126FD0EDBCF06F0FE0E60
:10024000DBCF07F01DEC04F005C01CF006C01DF06C
:1002500007C01EF008C01FF00A0E0A6ED70E0B6E04
:10026000A30E0C6E3C0E0D6E1CC005F01DC006F0FA
:100270001EC007F01FC008F032EC04F005C018F0F3
:1002800006C019F007C01AF008C01BF0330E0A6E42
:10029000930E0B6E880E0C6E430E0D6E18C005F09B
:1002A00019C006F01AC007F01BC008F09FEC04F05C
:1002B00005C014F006C015F007C016F008C017F00E
:1002C0000A6A0B6AC80E0C6E420E0D6E14C005F061
:1002D00015C006F016C007F017C008F032EC04F0A5
:1002E00036EC05F005C0DFFF010E06C0DBFF020E95
:1002F00007C0DBFFD950040FE66E000EDA20E66E71
:10030000DFCF14F0010EDBCF15F0020EDBCF16F0BD
:10031000176A16BE176814C0E6FF15C0E6FF16C0C0
:10032000E6FF17C0E6FF71EC0AF0186E060EE15EFC
:100330001850D950040FE66E000EDA20E66ED6ECA7
:100340000CF0E552E552030EF3CFDBFFDBCFE6FF07
:10035000D950040FE66E000EDA20E66E0DD8E55295
:10036000E552E5520A0EE15C02E2E16AE552E16E15
:10037000E552E7CFD9FF1200D9CFE6FFE1CFD9FF91
:10038000060EE126FD0EDBCFE9FFFE0EDBCFEAFF16
:10039000EF502D0801E0D9D0FC0EDB50050A01E139
:1003A00091D0010A57E0070A27E0010A01E0CCD00A
:1003B000200EDF6EDE522D0EDD6E300EF36E020E5D
:1003C000F3CFDBFF2E0EF36E030EF3CFDBFF300E09
:1003D000F36E040EF3CFDBFF010EE76EFD0EDBCFF5
:1003E000E9FFFE0EDBCFEAFFE750E926000EEA2226
:1003F000050EEFCFDBFFA8D0200EDF6EDE522D0EF4
:10040000DD6E300EF36E020EF3CFDBFF2E0EF36EB9
:10041000030EF3CFDBFF010EE76EFD0EDBCFE9FF2E
:10042000FE0EDBCFEAFFE750E926000EEA22040EBB
:10043000EFCFDBFF020EE76EFD0EDBCFE9FFFE0E16
:10044000DBCFEAFFE750E926000EEA22050EEFCFE8
:10045000DBFF7AD0200EDF6EDE522D0EDD6E010E38
:10046000E76EFD0EDBCFE9FFFE0EDBCFEAFFE750C4
:10047000E926000EEA22020EEFCFDBFF2E0EF36E0E
:10048000030EF3CFDBFF020EE76EFD0EDBCFE9FFBD
:10049000FE0EDBCFEAFFE750E926000EEA22040E4B
:1004A000EFCFDBFF030EE76EFD0EDBCFE9FFFE0EA5
:1004B000DBCFEAFFE750E926000EEA22050EEFCF78
:1004C000DBFF42D02D0EDF6E010EE76EFD0EDBCF9F
:1004D000E9FFFE0EDBCFEAFFE750E926000EEA2235
:1004E000010EEFCFDBFF020EE76EFD0EDBCFE9FF63
:1004F000FE0EDBCFEAFFE750E926000EEA22020EED
:10050000EFCFDBFF2E0EF36E030EF3CFDBFFE76EB4
:10051000FD0EDBCFE9FFFE0EDBCFEAFFE750E92659
:10052000000EEA22040EEFCFDBFFE76EFD0EDBCFFD
:10053000E9FFFE0EDBCFEAFFE750E926000EEA22D4
:10054000050EEFCFDBFF00D024D1FC0EDB50050AF7
:1005500001E1D7D0010A01E197D0070A64E0010A5E
:100560003BE0030A1CE0010A01E013D1200EDF6E1C
:10057000DE52DD6E300EF36E020EF3CFDBFF2E0E79
:10058000F36E030EF3CFDBFF300EF36E040EF3CFEA
:10059000DBFF300EF36E050EF3CFDBFFFAD0200E3B
:1005A000DF6EDE52DD6E300EF36E020EF3CFDBFF38
:1005B0002E0EF36E030EF3CFDBFF300EF36E040E40
:1005C000F3CFDBFFFD0EDBCFE9FFFE0EDBCFEAFF53
:1005D000050EEFCFDBFFDDD0200EDF6EDE52DD6ECD
:1005E000300EF36E020EF3CFDBFF2E0EF36E030E12
:1005F000F3CFDBFFFD0EDBCFE9FFFE0EDBCFEAFF23
:10060000040EEFCFDBFF010EE76EFD0EDBCFE9FF3F
:10061000FE0EDBCFEAFFE750E926000EEA22050EC8
:10062000EFCFDBFFB6D0200EDF6EDE52DD6EFD0EAB
:10063000DBCFE9FFFE0EDBCFEAFF020EEFCFDBFFE1
:100640002E0EF36E030EF3CFDBFF010EE76EFD0EF1
:10065000DBCFE9FFFE0EDBCFEAFFE750E926000E15
:10066000EA22040EEFCFDBFF020EE76EFD0EDBCFBA
:10067000E9FFFE0EDBCFEAFFE750E926000EEA2293
:10068000050EEFCFDBFF85D0200EDF6EFD0EDBCF3A
:10069000E9FFFE0EDBCFEAFF010EEFCFDBFFE76ED7
:1006A000FD0EDBCFE9FFFE0EDBCFEAFFE750E926C8
:1006B000000EEA22020EEFCFDBFF2E0EF36E030ECA
:1006C000F3CFDBFF020EE76EFD0EDBCFE9FFFE0E80
:1006D000DBCFEAFFE750E926000EEA22040EEFCF57
:1006E000DBFF030EE76EFD0EDBCFE9FFFE0EDBCF77
:1006F000EAFFE750E926000EEA22050EEFCFDBFF06
:1007000048D0FD0EDBCFE9FFFE0EDBCFEAFFEFCFD7
:10071000DFFF010EE76EFD0EDBCFE9FFFE0EDBCF44
:10072000EAFFE750E926000EEA22010EEFCFDBFFD9
:10073000020EE76EFD0EDBCFE9FFFE0EDBCFEAFF18
:10074000E750E926000EEA22020EEFCFDBFF2E0E65
:10075000F36E030EF3CFDBFFE76EFD0EDBCFE9FF99
:10076000FE0EDBCFEAFFE750E926000EEA22040E78
:10077000EFCFDBFFE76EFD0EDBCFE9FFFE0EDBCF39
:10078000EAFFE750E926000EEA22050EEFCFDBFF75
:1007900000D0F1EC08F0000901E0FBD7E66A37EC85
:1007A00009F0E552F1EC08F0000901E0FBD7DFCFDA
:1007B000E6FF60EC09F0E552F1EC08F0000901E019
:1007C000FBD7010EDBCFE6FF60EC09F0E552F1EC60
:1007D00008F0000901E0FBD7020EDBCFE6FF60EC7A
:1007E00009F0E552F1EC08F0000901E0FBD7030E37
:1007F000DBCFE6FF60EC09F0E552F1EC08F0000910
:1008000001E0FBD7040EDBCFE6FF60EC09F0E55218
:10081000F1EC08F0000901E0FBD7050EDBCFE6FFA5
:1008200060EC09F0E552060EE15C02E2E16AE55295
:0A083000E16EE552E7CFD9FF120098
:06083A000F9E08D00F9E86
:1008400007AE05D0066C071EE86A07220F8E07C0A8
:1008500001F006C000F0136A126A8E0E026E036A7F
:1008600084EF05F00F6AC0EC05F0D8EC05F00FB688
:1008700068EF05F00FA205D00FB868EF05F06FEF35
:1008800005F00FAA05D00FB068EF05F06FEF05F087
:100890000FB002D00FA802D07BEF05F0036A0D5015
:1008A0000824026EE86A03227E0E025EE86A035A9A
:1008B000126A136A006A016A0C500702F4CF01F051
:1008C000F3CF00F00B500702F3501326F450002230
:1008D000000E01220C500602F3501326F4500022A1
:1008E000000E01220A500702F3501226F450132280
:1008F000000E002201220B500602F3501226F45083
:100900001322000E002201220C500502F350122681
:10091000F4501322000E002201220A500602F45065
:100920001226000E1322002201220B500502F45061
:100930001226000E13220022012284EF05F00D7E04
:100940000F6AC0EC05F0D8EC05F00FB668EF05F0C3
:100950000FA20AD00FAA03D00FBE68EF05F00FA4B4
:1009600074EF05F071EF05F00FAA05D00FAC74EF2E
:1009700005F071EF05F00FA00AD00FA808D00FBE48
:1009800004D00FA402D07DEF05F081EF05F0126ACC
:10099000036A0D50085C116E10E305C013F006C029
:1009A00000F007C001F008C010F00AC005F00BC04D
:1009B00006F00CC007F00F3A09D00AC013F00BC0C4
:1009C00000F00CC001F00DC010F0116C0F9E0FBCB8
:1009D0000F8E10C002F00FB0B0EF05F01A0E1160CC
:1009E000B0EF05F0026A086A0FA408D0056C061E75
:1009F000071E081EE86A0622072208220FAC08D04C
:100A0000136C001E011E021EE86A0022012202224F
:100A1000046A115207E00834073206320532043204
:100A2000112EF9D705501326065000220750012237
:100A30000850022204C012F00F9E02AE0BD0126CBE
:100A4000131E001E011E021EE86A1322002201224C
:100A500002220F8E02A006D0D8800132003213325B
:100A60001232102A10C002F084EF05F00F6AC0ECB9
:100A700005F00FB640EF05F00FA20ED00FB406D070
:100A80007F0E076EFF0E066E056E21D0800E076E7C
:100A900001D0076A000EF7D70FB0FBD7970E08609A
:100AA000EDD77E0E0864F5D7960E085C06E0D89068
:100AB000073206320532082AF7D70FA408D0056C92
:100AC000061E071EE86A0622072207AEE2D71200BA
:100AD0007F0E086EFF0E076E066E056E12007F0E0B
:100AE0000FBEFF0E086E02D07F0E086E800E076EDE
:100AF000066A056AF3D70FAE04D0800E086E076A47
:100B0000F7D7086A076AF4D70150001013101210C3
:100B1000F8E003BEF0D701BE0CD002500310EBE0AA
:100B2000D89012361336003601360206D8A00306D6
:100B3000F2D70350D4E10228D2E012AE11D07F0EDA
:100B4000121402E113A00CD0132AE86A0022012239
:100B500007E3D880013200321332022A0228BFE0B4
:100B60000250C9E013C005F000C006F00134076E62
:100B70000230086E0732089E0FBE088E6EEF05F039
:100B80000736083602E30F840F7E06E10F80086AFD
:100B9000076A066A056A1200082803E0D88007324F
:100BA0001200D890073202E10F8212000F86120065
:100BB0000C360D3602E30F8C0F7E06E10F880D6AAE
:100BC0000C6A0B6A0A6A12000D2803E0D8800C3206
:0C0BD0001200D8900C32EAE10F8A1200EB
:040BDC00DACFE4FF89
:100BE000E2CFDAFFE652E552E5CFDAFF1100D8CFC7
:100BF000E4FFE0CFE4FFE46EDACFE4FFE2CFDAFF18
:100C0000E652E552E5CFDAFFE550E5CFE0FFE5CF6C
:100C1000D8FF1000D9CFE6FFE1CFD9FF040EE126BF
:100C20004FD8DF6ADE52070EDD6E2B0EE66E90ECBB
:100C300008F0E552F1EC08F0000901E0FBD70C0EDA
:100C4000E66E10EC09F0E552440EE66E480EE66ED4
:100C5000E66AE66A46EC0BF0E552E552E552E552EB
:100C6000010EDBCFE6FFDFCFE6FF38D8E552E552D5
:100C7000020EF3CFDBFF030EF4CFDBFF020EDBCF60
:100C8000E6FF030EDBCFE6FF16EC01F0E552E5527E
:100C9000A00EE66E860EE66E010EE66EE66A46EC85
:100CA0000BF0E552E552E552E552DAD7040EE15C6D
:100CB00002E2E16AE552E16EE552E7CFD9FF1200A8
:100CC0000F0EC16E948E949C050EAF6EA40EAC6E8A
:100CD000AB8E89989298948894861200D9CFE6FFBB
:100CE000E1CFD9FF0D0EE1260C0EDB6A0C0EDB0600
:100CF000DB5001E176D073EC07F0FE0EDBCFE6FFB0
:100D0000CEEC07F0E552000903E0A6EC07F0EED7C1
:100D1000FD0EDBCFE6FFCEEC07F0E552000903E065
:100D2000A6EC07F0E3D773EC07F0FE0EDBCFE6FF8F
:100D3000CEEC07F0E552000903E0A6EC07F0D6D7A9
:100D4000E66A62EC08F0E552E76E030EE7CFDBFFE0
:100D5000E66A62EC08F0E552E76E040EE7CFDBFFCF
:100D6000010EE66E62EC08F0E552E76E020EE7CF88
:100D7000DBFFA6EC07F0FE0EDB50E76E0A0EE7CFB6
:100D8000DBFFFD0EDB50E76E090EE7CFDBFFFE0E4B
:100D9000DB50E76E080EE7CFDBFF030EDB50E76E9C
:100DA000070EE7CFDBFF040EDB50E76E060EE7CF42
:100DB000DBFF050EDB6AD950050FE66E000EDA2068
:100DC000E66E87EC09F0E552E552E76E0B0EE7CFD1
:100DD000DBFF020EDB50F36E0B0EDB50F35C01E029
:100DE00085D70C0EDB5037E0040EDBCFE6FFECECD2
:100DF0000BF0E552030EDBCFE6FFECEC0BF0E55217
:100E0000680EE66E30EC0CF0E5522C0EE66E30EC1F
:100E10000CF0E552020EDBCFE6FFECEC0BF0E552F6
:100E2000680EE66E30EC0CF0E5522C0EE66E30ECFF
:100E30000CF0E5520B0EDBCFE6FFECEC0BF0E552CD
:100E4000680EE66E30EC0CF0E5520D0EE66E30ECFE
:100E50000CF0E5520AD02D0EE66E30EC0CF0E552A7
:100E60000D0EE66E30EC0CF0E552030EDB50DF6E3B
:100E7000040EDB50E76E010EE7CFDBFFDECF14F090
:100E8000DDCF15F014C0F3FF15C0F4FF0D0EE15CCB
:100E900003E200D0E16AE552E16EE552E7CFD9FF07
:100EA000120082969496E80EE66E1C0EE66EE66AD6
:100EB000E66A46EC0BF0E552E552E552E5529486BF
:100EC0001200D9CFE6FFE1CFD9FF73EC07F0FE0E99
:100ED000DBCFE6FFCEEC07F0E552A6EC07F0E552DB
:060EE000E7CFD9FF12006C
:0A0EE6009488010EE66EE66AE66AE3
:100EF000E66A46EC0BF0E552E552E552E55294867F
:100F0000010EE66EE66AE66AE66A46EC0BF0E5522A
:100F1000E552E552E55282989498010EE66EE66A33
:100F2000E66AE66A46EC0BF0E552E552E552E55218
:100F300082969496010EE66EE66AE66AE66A46ECEA
:100F40000BF0E552E552E552E55212008296949676
:100F5000010EE66EE66AE66AE66A46EC0BF0E552DA
:100F6000E552E552E55282989498010EE66EE66AE3
:100F7000E66AE66A46EC0BF0E552E552E552E552C8
:100F80009486010EE66EE66AE66AE66A46EC0BF0C7
:100F9000E552E552E552E55294881200D9CFE6FFBA
:100FA000E1CFD9FF030EE126080EDF6EDF5018E017
:100FB000FE0EDBAE06D0010EF36E020EF3CFDBFFAA
:100FC00002D0020EDB6ADBCFE6FF1DD8E552FE0E33
:100FD000DBCFF3FFF39EF346F3CFDBFFDF06E6D76D
:100FE0004AD8E76E010EE7CFDBFFDB50146E030E2D
:100FF000E15C03E200D0E16AE552E16E1450E55293
:10100000E7CFD9FF1200D9CFE6FFE1CFD9FFFE0E1F
:10101000DB5003E18298949801D09488000000008E
:1010200000009486000000000000000000000000A6
:1010300000000000000000000000000000000000B0
:1010400000000000000000000000000000000000A0
:101050000000000000000000000000000000000090
:1010600000008296949600000000000000D0E55237
:10107000E7CFD9FF1200D9CFE6FFE1CFD9FFE65283
:10108000948894860000000000000000000000002A
:101090000000000000000000000000000000000050
:1010A00000000000000082A803D0010EDF6E01D016
:1010B000DF6A82969496DF5000D0E552E552E7CF82
:1010C000D9FF1200D9CFE6FFE1CFD9FF020EE1260A
:1010D000DE52080EDD6E010EDB500FE0CCDF0009A2
:1010E00005E0DF9EDF46000EDF8004D0DF9EDF4696
:1010F000000EDF90010EDB06EED7FE0EDBCFE6FF23
:1011000082DFE552DF50146E020EE15C03E200D094
:10111000E16AE552E16E1450E552E7CFD9FF1200C3
:10112000D9CFE6FFE1CFD9FFF00E83160F0E95124F
:1011300096949598959A84948398839A86EC0BF06C
:10114000F00E951683168382838A6BEC0BF0839ADC
:10115000B9EC0BF0F00E83168382838A6BEC0BF0F4
:10116000839AB9EC0BF0F00E83168382838A6BECC2
:101170000BF0839A0F0E951234D8000901E0FCD7CA
:10118000FE0EDBCFE6FF4CD8E5522BD8000901E07C
:10119000FCD7080EE66E44D8E55223D8000901E0DA
:1011A000FCD70F0EE66E3CD8E5521BD8000901E0D3
:1011B000FCD7010EE66E34D8E55213D8000901E0E1
:1011C000FCD7130EE66E2CD8E5520BD8000901E0CF
:1011D000FCD7E66A4CD8E55200D0E552E7CFD9FFFC
:1011E0001200848483986BEC0BF0838A6BEC0BF019
:1011F00083A60BD0839A6BEC0BF0838A6BEC0BF01D
:10120000839A8494010E0BD00AD0839A6BEC0BF076
:10121000838A6BEC0BF0839A8494000E00D012004A
:10122000D9CFE6FFE1CFD9FFF00E95168316FE0E5B
:10123000DB380F0B0F0B8312849483986BEC0BF04D
:10124000838A6BEC0BF0839AF00E8316FE0EDB5054
:101250000F0B83126BEC0BF0838A6BEC0BF0839A11
:101260000F0E951200D0E552E7CFD9FF1200D9CF6B
:10127000E6FFE1CFD9FFF00E95168316FE0EDB5088
:101280008009E8380F0B0F0B8312849483986BEC62
:101290000BF0838A6BEC0BF0839AF00E8316FE0E34
:1012A000DB500F0B83126BEC0BF0838A6BEC0BF0B3
:1012B000839A0F0E951200D0E552E7CFD9FF1200A6
:1012C000D9CFE6FFE1CFD9FFF00E95168316FE0EBB
:1012D000DB380F0B0F0B8312838884946BEC0BF0BD
:1012E000838A6BEC0BF0839AF00E8316FE0EDB50B4
:1012F0000F0B83126BEC0BF0838A6BEC0BF0839A71
:0E1300000F0E951200D0E552E7CFD9FF120074
:02130E00D9CF35
:10131000E6FFE1CFD9FF0B0EE1262F0EF36E060E8E
:10132000F3CFDBFF050EDB6A040EDB6A030EDB6A1C
:10133000020EDB6ADE52010EDD6E070EDF6E2F0E2F
:10134000F36E060EF3CFDBFF070EDB6A050EF36EBE
:10135000080EF3CFDBFF090EDB6A800E156E090E57
:10136000DB5015C0E7FF070B04E0E742E79EE80605
:10137000FCE1E750146E080EDB50E76EFD0EDBCF8C
:10138000E9FFFE0EDBCFEAFFE750E926000EEA2276
:10139000EF50141416E1080EDB50000812E2060E9E
:1013A000DB06070EF36E090EDBCFF4FFF350F45C9F
:1013B00003E2090EDB2A04D0090EDB6A080EDB0605
:1013C000CCD7060EDB50F80FE76E070EE7CFDBFF3A
:1013D000DB5049E0050EF36E080EF3CFDBFFFF0E86
:1013E000F36E080EDBCFF4FFF350F45C39E2D9CF93
:1013F00014F0DACF15F0080EDB040F011424E96EA7
:10140000000E1520EA6EEF50800B0AE0080EDB504C
:10141000000806E2010EF36E0A0EF3CFDBFF02D0E6
:101420000A0EDB6AD9CF14F0DACF15F0080EDB50C4
:101430001424E96E000E1520EA6EEF9EEF46D9CF18
:1014400014F0DACF15F0080EDB501424E96E000E0C
:101450001520EA6E0A0EDB50EF26080EDB06BFD71A
:10146000070EDB06B5D7080EDB6ADB50050820E364
:10147000D9CF15F0DACF16F0080EDB500F01152486
:10148000E96E000E1620EA6EEFCF14F0080EDB5066
:10149000E76EFD0EDBCFE9FFFE0EDBCFEAFFE75084
:1014A000E926000EEA221450EF1A080EDB2ADDD7D7
:1014B000060EDB50080801E235D7FD0EDBCFE9FF51
:1014C000FE0EDBCFEAFFEF50146E0B0EE15C03E281
:1014D00000D0E16AE552E16E1450E552E7CFD9FF42
:0214E0001200F8
:0E14E200D9CFE6FFDACFE6FFF80EE3CFD9FF51
:1014F000F90EE3CFDAFFFD0EE35215E72D0EDE6E97
:10150000FA0EE31EFB0EE31EFC0EE31EFD0EE31EB1
:10151000FA0EE32A08E1FB0EE32A05E1FC0EE32ABA
:1015200002E1FD0EE32AE652E652E652E652E652A8
:10153000FB0EE124E76EFF0EE220E46EE652F30EAE
:10154000E3CFE6FFF30EE3CFE6FFF30EE3CFE6FFD4
:10155000F30EE3CFE6FF0EEC0BF0F50EE124E96E9F
:10156000FF0EE220EA6EFBEC0AF019E1FEEC0AF055
:1015700018E1FBEC0AF017E1FEEC0AF016E1FBECD7
:101580000AF015E1FEEC0AF014E1FBEC0AF013E1BD
:10159000FEEC0AF012E1FBEC0AF011E112D004ECCF
:1015A0000BF009EC0BF004EC0BF009EC0BF004EC85
:1015B0000BF009EC0BF004EC0BF009EC0BF004EC75
:1015C0000BF009EC0BF0DE6AF50EE126FF0EE222CD
:1015D000FF0EE3CFDAFFE552FF0EE3CFD9FFE5526E
:1015E000FA0EE124E96EFF0EE220EA6EEECFF3FF81
:1015F000EFCFF4FF1200EF380F0B1200EF500F0B7C
:1016000002E1EE52D8841200EF380F0B300FDE6E7D
:101610001200EE500F0B300FDE6E1200FA0EE3CF09
:10162000E9FFFB0EE3CFEAFF200EE66EEE6AEE6AFC
:10163000EE6AEE6AEF6AD890FB0EE336FC0EE336F4
:10164000FD0EE336FE0EE336ED36ED36ED36ED36C5
:10165000EF36FF0EE3060FE03DEC0BF0EE523DECF3
:101660000BF0EE523DEC0BF0EE523DEC0BF0EE5277
:101670003DEC0BF0E1D7E56E1200030EEF24E8B667
:0C168000EF6E300EEF24E8BEEF6E000CA1
:04168C00D9CFE6FFCD
:10169000E1CFD9FFFB0EDBCF14F0FC0EDBCF15F052
:1016A000FD0EDBCF16F0FE0EDBCF17F01450151039
:1016B000161017100CE0D950FB0FE96EFF0EDA2060
:1016C000EA6EEE06000EEE5AEE5AEE5AE3D7E552F7
:1016D000E7CFD9FF1200000000000000000000006A
:1016E00000000000000000000000000000000000FA
:1016F00000000000000000000000000000000000EA
:10170000000000000000000000001200D9CFE6FF3A
:10171000E1CFD9FF040EE126DC0EDE6E050EDE6E93
:10172000DE6ADD6ADD52DD52D9CFE9FFDACFEAFFAA
:10173000EECF14F0EECF15F0EECF16F0EFCF17F09E
:1017400014501510161017100AE0D9CFE9FFDACFA0
:10175000EAFFEE06000EEE5AEE5AEE5AE5D7040EF8
:10176000E15C02E2E16AE552E16EE552E7CFD9FFC2
:101770001200D9CFE6FFE1CFD9FF040EE126F40E27
:10178000DE6E010EDE6EDE6ADD6ADD52DD52D9CF1D
:10179000E9FFDACFEAFFEECF14F0EECF15F0EECF8F
:1017A00016F0EFCF17F014501510161017100AE0AE
:1017B000D9CFE9FFDACFEAFFEE06000EEE5AEE5A75
:1017C000EE5AE5D7040EE15C02E2E16AE552E16E11
:0817D000E552E7CFD9FF12003A
:0817D800D9CFE6FFE1CFD9FFF4
:1017E000020EE126FE0EDB380F0B0F0BDF6E0A0E2A
:1017F000DF5C07E2300EDF24E76E010EE7CFDBFF90
:1018000006D0370EDF24E76E010EE7CFDBFF9EA880
:10181000FED7010EDB50AD6EFE0EDB500F0BDF6E00
:101820000A0EDF5C07E2300EDF24E76E010EE7CF21
:10183000DBFF06D0370EDF24E76E010EE7CFDBFFBC
:101840009EA8FED7010EDB50AD6E020EE15C03E2F6
:1018500000D0E16AE552E16EE552E7CFD9FF120010
:10186000D9CFE6FFE1CFD9FF9EA8FED7FE0EDB5011
:0C187000AD6E00D0E552E7CFD9FF1200AA
:04187C002A0EF66ECC
:10188000020EF76E000EF86E00010900F550856F2C
:101890000900F550866F03E1856701D03DD009004E
:1018A000F550806F0900F550816F0900F550826F87
:1018B00009000900F550E96E0900F550EA6E0900CB
:1018C00009000900F550836F0900F550846F090085
:1018D0000900F6CF87F0F7CF88F0F8CF89F080C005
:1018E000F6FF81C0F7FF82C0F8FF0001835302E1D9
:1018F000845307E00900F550EE6E8307F8E2840791
:10190000F9D787C0F6FF88C0F7FF89C0F8FF00014C
:0A1910008507000E865BBFD71200AA
:06191A00D9CFE6FFE1CF8A
:10192000D9FF73EC07F0FE0EDBCFE6FFCEEC07F03D
:10193000E552E668CEEC07F0E552F30EE66ECEEC2B
:1019400007F0E552A6EC07F082969496E552E7CFB1
:10195000D9FF12009486000000000000829894983D
:10196000B80EE66E0B0EE66EE66AE66A46EC0BF023
:10197000E552E552E552E552B80EE66E0B0EE66E04
:10198000E66AE66A46EC0BF0E552E552E552E552AE
:10199000B80EE66E0B0EE66EE66AE66A46EC0BF0F3
:0C19A000E552E552E552E5529488120031
:0419AC00FE0EE3CF79
:1019B000E9FFFF0EE3CFEAFFF36AF46AEE5203E0B9
:0819C000F34AF42AFBD71200E0
:0819C80011EE00F021EE00F029
:1019D000F86A0F9C3EEC0CF00AEC06F0FDD7120002
:020000040030CA
:01000100827C
:0100020004F9
:010003001EDE
:010005008179
:010006008178
:010008000FE8
:010009008076
:01000A000FE6
:01000B00A054
:01000C000FE4
:01000D0000F2
:0200000400F00A
:0200FE00664456
:00000001FF
